:100000005DC038C376C075C074C073C072C071C0A3
:1000100070C06FC06EC06DC06CC06BC06AC069C07C
:1000200068C067C066C005010906A101050719E09F
:1000300029E71500250175019508810295017508CC
:100040002565190029658100C0040309042403699A
:10005000006D0061006B006500700072006F006A47
:100060000065006300740073002E0063006F006D74
:100070000016034800610075006E0074006500649E
:100080000055005300420012011001000000084218
:100090004231E100010102000109022200010100D8
:1000A000801909040000010300000009210101007A
:1000B000012223000705810308000A0011241FBE46
:1000C000CFE5D4E0DEBFCDBF10E0A0E6B0E0E8E0D1
:1000D000FBE002C005900D92A836B107D9F710E0F9
:1000E000A8E6B0E001C01D92A73AB107E1F7BFD082
:1000F00009C586CFAF92BF92CF92DF92EF92FF9267
:100100000F931F937B018C01AAE0EE0CFF1C001FD4
:10011000111FAA95D1F72FEF3FEF4FEF5FE7E222D4
:10012000F322042315235B016C01FFE0AA0CBB1C26
:10013000CC1CDD1CFA95D1F7A222B322C422D52211
:100140009B01AC01E5E15595479537952795EA95D3
:10015000D1F7A21AB30AC40AD50ABC01992777FDC0
:100160009095892FA60EB71EC81ED91EAE18BF08BF
:10017000C00AD10AD7FE08C08FEF9FEFAFEFBFE7ED
:10018000A80EB91ECA1EDB1EB501C6011F910F9134
:10019000FF90EF90DF90CF90BF90AF90089510D474
:1001A000AA2797FDA095BA2FBC01CD01A3DF6070EF
:1001B00080709070BDE09595879577956795BA9515
:1001C000D1F7611571058105910509F44CC06130C5
:1001D00071058105910511F429E414C0623071059F
:1001E0008105910511F42AE214C06330710581057F
:1001F0009105D9F1643071058105910511F423E56C
:1002000015C020E0653071058105910511F42BE2E0
:100210000DC0663071058105910511F42CE406C00E
:10022000673071058105910509F429E330916D006E
:10023000332311F080E00FC080917000882311F407
:10024000822F09C0833011F490E001C099E38150FE
:1002500080937000892F3F5F30936D0010926A0089
:1002600080936B00089529E3CDCF2CE2DFCFFF927E
:100270000F931F93CF93DF93B89A20E048EC5FEA87
:10028000CA010197F1F72F5F2431D1F7B8982EE01A
:1002900088E190E00FB6F894A89581BD0FBE21BD0E
:1002A0008EB588608EBD81E09DE59BBD8ABD8EB513
:1002B00082608EBD88EC90E090936F0080936E001A
:1002C00083E08093700061D0789410E1F12E0BE30D
:1002D00011E0CCE3D0E0A89562D08091620084FF69
:1002E00009C080916D00823028F459DF8AE690E0E1
:1002F00062E071D108B604FEEECFF8BE80916800CE
:100300009091690001969093690080936800209114
:100310006E0030916F0082179307E8F210936F0020
:1003200000936E0080917000823020F0D0936F00B7
:10033000C0936E00109269001092680010926D00D8
:10034000CACFFC018AE690E090938C0080938B00EA
:10035000808180768032B9F48181813019F41FDF89
:1003600082E00895823041F48CE690E090938C0016
:1003700080938B0081E008958A3029F483818093F3
:100380006C0080E0089580E0089585B7836085BFA4
:100390008BB780648BBF83EC80937D0008950F93AF
:1003A0001F93CF93DF9390918D0019160CF0B7C077
:1003B00020918A00809189008D3209F0A6C08AE5DB
:1003C000809361009B3009F0A0C0CCE0D0E0C21B5C
:1003D000D109CF56DF4F8881807609F088C010920E
:1003E0007B008981882359F410927C008BE790E090
:1003F00090938C0080938B0090E822E07FC0853042
:1004000021F48A8180938E0070C0863009F052C03A
:100410008B81813049F487E890E090938C00809341
:100420008B0090EC22E16AC0823049F489E990E0C7
:1004300090938C0080938B0090EC22E25FC083301D
:1004400019F58A81882349F489E490E090938C001F
:1004500080938B0090EC24E051C0813049F48DE40E
:1004600090E090938C0080938B0090EC24E246C047
:10047000823009F041C081E790E090938C00809336
:100480008B0090EC26E13AC0813249F48BEA90E08F
:1004900090938C0080938B0090EC29E02FC08232E7
:1004A00059F586E290E090938C0080938B0090EC5D
:1004B00023E224C0883019F480E990E00AC0893032
:1004C00021F48A818093900010C08A3049F48BE730
:1004D00090E090938C0080938B0090E821E00EC018
:1004E0008B3019F483EC80937D0090E806C0CE0138
:1004F00028DF282F90E802C090EC20E08F8188232D
:1005000039F48E81821728F003C090E880E001C0A2
:10051000822F909371008093600010928D008091E3
:10052000610084FF49C0809160008F3F09F444C09E
:10053000182F893008F018E0811B809360008091AB
:10054000710080FD02C00BE401C003EC8F5F80935B
:10055000710020918B0030918C0086FD05C0D9017F
:10056000912FE3E7F0E011C0A3E7B0E080E090E076
:1005700006C0F901E80FF91FE491ED9301961817F1
:10058000C1F705C08D91819391509923D9F7F90155
:10059000E10FF11DF0938C00E0938B0083E790E076
:1005A000612F51D0183019F08FEF809360000093C5
:1005B00072001C5F109361009AE086B3837031F47F
:1005C0009150D9F710928E0010928800DF91CF9150
:1005D0001F910F9108951F93DC01162F80916200E7
:1005E00084FF0AC080917D0098E8892780937D0070
:1005F000912FEEE7F0E007C08AE580936200F8CF24
:100600008D91819391509923D9F78EE790E0612FD6
:100610001AD01C5F109362001F910895A82FB92F64
:1006200080E090E041E050EA60956F5F58F42D91D2
:1006300038EF82279795879510F0842795273F5F9D
:10064000C8F3F3CF0895EADF8D939D930895A6E054
:1006500088279927AA9569F00197E1F3B099FCCF13
:10066000B09BFECF81E09927A6B3019611F0A3704D
:10067000D9F70895CF93CFB7CF93B09BFECFB09B60
:1006800009C0B09B07C0B09B05C0B09B03C0B09B26
:1006900001C0A3C0DF93C0918A00DD27CF56DF4F92
:1006A000B09B02C0DF91EBCF2F930F931F9306B344
:1006B0002FEF00FB20F94F933F9316B34FEF012725
:1006C00000FB21F93BE031C04E7F012F16B32160C2
:1006D00028C0102F4D7F2260000006B329C04B7F39
:1006E0002460012F000016B32BC016B3477F28608B
:1006F0002AC04F7E06B320612CC04F7D16B3206206
:100700002FC04F7B06B3206432C0422706B3499303
:100710004FEF0000102710FB20F916B31370C9F13A
:10072000297F91F2012700FB21F906B3237F89F28B
:10073000315058F1102710FB22F916B3277E79F2B9
:10074000012700FB23F92F7C81F206B3102710FB51
:1007500024F92F7971F200C016B3012700FB25F9A7
:100760002F7359F200C006B3102710FB26F9223070
:1007700040F200C016B3012700FB27F9243028F609
:100780004F77206816B30000F9CF10E41ABF002796
:1007900019C03B503195C31BD04010E41ABF0881EB
:1007A000033CF9F00B34E9F0209188001981110F16
:1007B0001213EDCF4A81441F093641F10D3211F079
:1007C000013E29F700938F003F914F911F910F91A8
:1007D0002F91DF91CAB7C6FD50CFCF91CFBFCF9138
:1007E000189500918F00002379F310918D0011234B
:1007F000A1F53430A2F130938D000093890010915F
:100800008A003BE0311B30938A0029C000918D00A3
:1008100001301CF50AE54F7049F43091610034FD58
:1008200020C000936100C2E7D0E01FC03091620099
:1008300034FD17C000936200CDE7D0E016C0052755
:1008400010E008BB1FC0052722C0052727C00527C9
:100850002CC0052710E008BB33C04AE503C042EDB9
:1008600001C0432FC4E1D0E032E017B31360C09A57
:1008700008B317BB5F9353E020E820FF052708BBB0
:10088000279517951C3FD8F620FF0527279508BB0D
:1008900017951C3FC0F620FF05272795179508BB25
:1008A0001C3F98F620FF0527279517951C3F08BB8E
:1008B00070F600C0499120FF052708BB27951795C2
:1008C0001C3F38F620FF0527279508BB17951C3FCE
:1008D00038F520FF05272795179508BB1C3F10F515
:1008E00020FF0527279517951C3F08BBE8F4242F08
:1008F0003A9519F60C7F5F9108BB10918E00110F8D
:10090000C651D04011F01093880010E41ABF016066
:1009100017B31C7F402F4C7F08BB17BB48BB54CF7D
:100920000527D3CF0527D8CF0527DDCFA0E0B0E03E
:10093000EBE9F4E096C0EC01A880B980CA80DB80C6
:10094000A114B104C104D10441F484E2A82E89EDBC
:10095000B82E8BE5C82E87E0D82EC601B5012DE153
:1009600033EF41E050E05AD027EA31E440E050E074
:1009700036D07B018C01C601B5012DE133EF41E09A
:1009800050E04CD0CA01B9012CEE34EF4FEF5FEFCD
:1009900026D06E0D7F1D801F911F97FF04C06150F0
:1009A000704080409048688379838A839B839B0151
:1009B0003F77C901CDB7DEB7EAE06FC0B7DF089572
:1009C00083E690E0B3DF0895A0E0B0E08093630099
:1009D00090936400A0936500B09366000895629FB1
:1009E000D001739FF001829FE00DF11D649FE00D27
:1009F000F11D929FF00D839FF00D749FF00D659F88
:100A0000F00D9927729FB00DE11DF91F639FB00D86
:100A1000E11DF91FBD01CF011124089597FB092E97
:100A200005260ED057FD04D04BD00AD0001C38F458
:100A300050954095309521953F4F4F4F5F4F08950A
:100A4000F6F790958095709561957F4F8F4F9F4FEA
:100A500008952F923F924F925F926F927F928F9262
:100A60009F92AF92BF92CF92DF92EF92FF920F933D
:100A70001F93CF93DF93CDB7DEB7CA1BDB0B0FB647
:100A8000F894DEBF0FBECDBF09942A883988488804
:100A90005F846E847D848C849B84AA84B984C8849A
:100AA000DF80EE80FD800C811B81AA81B981CE0F91
:100AB000D11D0FB6F894DEBF0FBECDBFED01089576
:100AC000A1E21A2EAA1BBB1BFD010DC0AA1FBB1F52
:100AD000EE1FFF1FA217B307E407F50720F0A21BC4
:100AE000B30BE40BF50B661F771F881F991F1A9431
:100AF00069F760957095809590959B01AC01BD015B
:080B0000CF010895F894FFCF26
:080B0800FF5A5A010000000031
:00000001FF
