:101800003BC06FC054C053C052C051C050C04FC045
:101810004EC04DC04CC04BC04AC049C048C047C074
:1018200046C045C044C0040309041C037700770088
:1018300077002E00660069007300630068006C008A
:101840002E00640065000E03550053004200610045
:101850007300700012011001FF000008C016DC05C3
:101860000201010200010902120001010080320997
:10187000040000000000000011241FBECFE5D4E0EA
:10188000DEBFCDBF10E0A0E6B0E0E0E9FFE102C0BE
:1018900005900D92A636B107D9F710E0A6E6B0E0A4
:1018A00001C01D92AD39B107E1F761D16FC3A8CF77
:1018B000A82FB92F80E090E041E050EA609530E039
:1018C00009C02D9182279795879510F08427952739
:1018D000305EC8F36F5FA8F30895EADF8D939D93A0
:1018E0000895CF93CFB7CF93C395B09BE9F7B09B43
:1018F00009C0B09B07C0B09B05C0B09B03C0B09BA4
:1019000001C0A1C0DF93C0918000DD27C957DF4F20
:10191000B09B02C0DF91EBCF2F930F931F9306B3C1
:101920002FEF00FB20F94F933F9316B34FEF0127A2
:1019300000FB21F93BE031C04E7F012F16B321603F
:1019400028C0102F4D7F2260000006B329C04B7FB6
:101950002460012F000016B32BC016B3477F286008
:101960002AC04F7E06B320612CC04F7D16B3206283
:101970002FC04F7B06B3206432C0422706B3499381
:101980004FEF0000102710FB20F916B31370C9F1B8
:10199000297F91F2012700FB21F906B3237F89F209
:1019A000315058F1102710FB22F916B3277E79F237
:1019B000012700FB23F92F7C81F206B3102710FBCF
:1019C00024F92F7971F200C016B3012700FB25F925
:1019D0002F7359F200C006B3102710FB26F92230EE
:1019E00040F200C016B3012700FB27F9243028F687
:1019F0004F77206816B30000F9CF10E41ABF002714
:101A000017C03B503195C31BD04010E41ABF08816A
:101A1000033CE9F00B34D9F020917E001981110FBD
:101A20001213EDCF093641F10D3211F0013E39F7B5
:101A3000009385003F914F911F910F912F91DF915E
:101A4000CAB7C6FD51CFCF91CFBFCF911895209186
:101A50008500222379F310918300112311F534308E
:101A600012F13093830020937F00109180003BE0BF
:101A7000311B3093800017C00091830001308CF43B
:101A80000AE53091600034FD10C000936000C3E7A8
:101A9000D0E00FC02795A8F45150A9F4220F000000
:101AA000F9CF4AE503C042ED01C0432FC4E1D0E0C5
:101AB00032E017B31360C09A17BB08B320E413E0F9
:101AC0005F93012756E008BB279520F4515021F47D
:101AD000220FF9CF012756E000003B5A08BBD0F295
:101AE000279528F4515029F4220F0000F9CF01273F
:101AF00056E0279508BB20F4515021F4220FF9CF6E
:101B0000012756E02991332308BB21F60C7F109161
:101B10008400110FC651D04008BB11F010937E0015
:101B200010E41ABF016017B31C7F402F4C7F5F91F8
:101B300000C000C008BB17BB48BB7CCF1EBC14BA9A
:101B4000F8941BBE15BE81E08BBF1BBEE0917100F7
:101B5000F0917200099510926B001DBC1CBC8EB5F3
:101B600085608EBD08958EB5887F8EBD089588E10D
:101B70000FB6F89481BD11BC0FBE04B601FEF0C1D2
:101B800014BE81E08BBF82E08BBF85B7826085BFCA
:101B90008BB780648BBFB89A20E005C0A89588EB0E
:101BA0009BE00197F1F72150C9F7B8988EB588608E
:101BB0008EBD86EC9DE29BBD8ABD7894CCDFA09A59
:101BC00010918300135017FD39C180918000CCE043
:101BD000D0E0C81BD109C957DF4F80917F008D32FB
:101BE00009F0DEC0183009F027C183EC8093730040
:101BF0008AE58093600010926A008881807609F4FB
:101C00005DC0B1DF86E690E0909382008093810012
:101C10002981233079F59B818C812A81203339F405
:101C20008370E82FF0E0EE59FF4F80811FC0203A0B
:101C300011F497D11BC0203C19F46D819AD115C0C5
:101C40002C3A99F4903889F4E0E0F0E007B600FC13
:101C5000FDCFF89483E080935700E8957894E05C9A
:101C6000FF4F88E1E030F80789F780E08093690052
:101C700014E01FC0253011F411E01BC0822F8450E6
:101C8000863088F48A819B8190936E0080936D00EA
:101C9000293071F08E8180936F008D8182708093E6
:101CA00070001FEF06C0223019F481E080936C00B1
:101CB00010E051DF1F3F09F462C068C09A811092A2
:101CC0007C008981882331F410927D008CE790E0BC
:101CD00012E050C0853019F49093840048C08630DB
:101CE000B1F58B81813019F484E598E104C082302C
:101CF00041F486E698E1909382008093810012E19E
:101D000022C08330F9F48A81882341F486E298E185
:101D1000909382008093810014E015C0813041F4DB
:101D20008AE298E190938200809381001CE10BC0CD
:101D3000823041F486E498E19093820080938100A0
:101D40001EE001C010E080E480936A001FC088306C
:101D500019F486E890E009C0893019F49093860060
:101D600006C08A3021F48CE790E011E003C08CE7D4
:101D700090E010E0909382008093810007C08881FA
:101D800087FD1E8180E880936A0006C08F818823CA
:101D900019F48E81811708F0812F809361004CC067
:101DA00080916A0087FF48C0DEDE80916F00412F7E
:101DB000811708F4482F841B80936F0010E088235C
:101DC00009F411E030E030C03E5FF894E0916D001E
:101DD000F0916E008991999121E00C0120935700B8
:101DE000E89511247894CF01029690936E00809329
:101DF0006D008F739070892B41F01123A9F0341777
:101E000098F080917000882379F0F89485E08093B1
:101E10005700E895789407B600FCFDCFF89481E16F
:101E200080935700E8957894341708F4CDCF93DE6B
:101E3000112311F0109261001092830080916000D4
:101E400084FF67C0809161008F3F09F462C0182F42
:101E5000893008F018E0811B809361008091730045
:101E600098E8892780937300112309F440C080917A
:101E70006A0087FF20C077DE80916F00811708F429
:101E8000182F811B80936F00E0916D00F0916E0020
:101E9000A4E7B0E003C084918D933196812F90E048
:101EA0008C589F4FA817B907B1F7F0936E00E093D5
:101EB0006D0051DE1AC0E0918100F091820086FF32
:101EC00009C0912FA4E7B0E084918D933196915091
:101ED000D9F707C0912FA4E7B0E081918D9391507D
:101EE000E1F7F0938200E0938100193060F484E719
:101EF00090E0612FF2DC612F6C5F6C3041F08FEF6E
:101F00008093610004C08FEF809361006EE1609365
:101F1000600094E186B3837031F49150D9F7109248
:101F2000840010927E0008B604FE07C080916B000A
:101F30008F5F80936B0080E188BF80916B0085305C
:101F400010F0A19A05C080916C00882309F438CE66
:101F500088EE93E0ECE2F1E03197F1F70197D1F7E9
:101F6000EDDDE199FECF9FBB8EBBE09A99278DB343
:101F70000895262FE199FECF9FBB8EBB2DBB0FB6D8
:101F8000F894E29AE19A0FBE01960895F894FFCF73
:061F90005AFF1E9307003A
:0400000300001800E1
:00000001FF
