:101800003BC06FC054C053C052C051C050C04FC045
:101810004EC04DC04CC04BC04AC049C048C047C074
:1018200046C045C044C0040309041C037700770088
:1018300077002E00660069007300630068006C008A
:101840002E00640065000E03550053004200610045
:101850007300700012011001FF000008C016DC05C3
:101860000201010200010902120001010080320997
:10187000040000000000000011241FBECFE5D4E0EA
:10188000DEBFCDBF10E0A0E6B0E0E8E4FFE102C0BB
:1018900005900D92A636B107D9F710E0A6E6B0E0A4
:1018A00001C01D92AC39B107E1F755D14BC3A8CFA8
:1018B000A82FB92F80E090E041E050EA609530E039
:1018C00009C02D9182279795879510F08427952739
:1018D000305EC8F36F5FA8F30895EADF8D939D93A0
:1018E0000895CF93CFB7CF93C395B09BE9F7B09B43
:1018F00009C0B09B07C0B09B05C0B09B03C0B09BA4
:1019000001C0A1C0DF93C0917F00DD27CA57DF4F20
:10191000B09B02C0DF91EBCF2F930F931F9306B3C1
:101920002FEF00FB20F94F933F9316B34FEF0127A2
:1019300000FB21F93BE031C04E7F012F16B321603F
:1019400028C0102F4D7F2260000006B329C04B7FB6
:101950002460012F000016B32BC016B3477F286008
:101960002AC04F7E06B320612CC04F7D16B3206283
:101970002FC04F7B06B3206432C0422706B3499381
:101980004FEF0000102710FB20F916B31370C9F1B8
:10199000297F91F2012700FB21F906B3237F89F209
:1019A000315058F1102710FB22F916B3277E79F237
:1019B000012700FB23F92F7C81F206B3102710FBCF
:1019C00024F92F7971F200C016B3012700FB25F925
:1019D0002F7359F200C006B3102710FB26F92230EE
:1019E00040F200C016B3012700FB27F9243028F687
:1019F0004F77206816B30000F9CF10E41ABF002714
:101A000017C03B503195C31BD04010E41ABF08816A
:101A1000033CE9F00B34D9F020917D001981110FBE
:101A20001213EDCF093641F10D3211F0013E39F7B5
:101A3000009384003F914F911F910F912F91DF915F
:101A4000CAB7C6FD51CFCF91CFBFCF911895209186
:101A50008400222379F310918200112311F5343090
:101A600012F13093820020937E0010917F003BE0C2
:101A7000311B30937F0017C00091820001308CF43D
:101A80000AE53091600034FD10C000936000C2E7A9
:101A9000D0E00FC02795A8F45150A9F4220F000000
:101AA000F9CF4AE503C042ED01C0432FC4E1D0E0C5
:101AB00032E017B31360C09A17BB08B320E413E0F9
:101AC0005F93012756E008BB279520F4515021F47D
:101AD000220FF9CF012756E000003B5A08BBD0F295
:101AE000279528F4515029F4220F0000F9CF01273F
:101AF00056E0279508BB20F4515021F4220FF9CF6E
:101B0000012756E02991332308BB21F60C7F109161
:101B10008300110FC651D04008BB11F010937D0017
:101B200010E41ABF016017B31C7F402F4C7F5F91F8
:101B300000C000C008BB17BB48BB7CCF12BA14BAA8
:101B4000F8941BBE15BE81E08BBF1BBEE0917000F8
:101B5000F0917100099588E10FB6F89481BD11BC30
:101B60000FBE979A04B601FED7C114BE81E08BBFA9
:101B700082E08BBF879B03C088EE93E0C7C185B727
:101B8000826085BF8BB780648BBFB89A20E005C0A8
:101B9000A89588EB9BE00197F1F72150C9F7B89819
:101BA0007894A09A90918200935097FD35C18091CE
:101BB0007F00CCE0D0E0C81BD109CA57DF4F80912D
:101BC0007E008D3209F0DAC0983009F023C183EC31
:101BD000809372008AE58093600010926A003881D9
:101BE000832F80762981882309F459C086E690E006
:101BF0009093810080938000233079F59B818C81C4
:101C00002A81203339F48370E82FF0E0EE59FF4F3A
:101C100080811FC0203A11F480D11BC0203C19F4F0
:101C20006D8183D115C02C3A99F4903889F4E0E0A5
:101C3000F0E007B600FCFDCFF89483E080935700F6
:101C4000E8957894E05CFF4F88E1E030F80789F789
:101C500080E08093690094E087C0253011F491E022
:101C600083C0822F8450863098F48A819B81909320
:101C70006D0080936C00293081F09E8190936E00FE
:101C80008D81827080936F0037FD69C02FEF68C02F
:101C9000223019F481E080936B0090E065C08A8166
:101CA00010927B00222331F410927C002BE730E06D
:101CB00092E050C0253019F48093830048C026304C
:101CC000B1F58B81813019F484E598E104C082304C
:101CD00041F486E698E1909381008093800092E140
:101CE00022C08330F9F48A81882341F486E298E1A6
:101CF000909381008093800094E015C0813041F47E
:101D00008AE298E190938100809380009CE10BC06F
:101D1000823041F486E498E19093810080938000C2
:101D20009EE001C090E080E480936A001DC02830EE
:101D300019F425E830E009C0293019F480938500B2
:101D400006C02A3021F42BE730E091E003C02BE7F6
:101D500030E090E0309381002093800005C0292F6F
:101D600080E880936A0007C08F81882319F42E8150
:101D7000291708F0292F209361004CC080916A0038
:101D800087FF48C080916E00592F891708F4582F9B
:101D9000851B80936E0060E0882309F461E07091F8
:101DA0006F00E0916C00F0916D0040E029C04E5F43
:101DB000F8948991999121E00C0120935700E895BE
:101DC000112478949F012E5F3F4FC9018F7390704B
:101DD000892B31F0662399F0451788F0772379F045
:101DE000F89485E080935700E895789407B600FC56
:101DF000FDCFF89481E180935700E8957894F9013C
:101E00004517A8F2F0936D00E0936C00662311F083
:101E100010926100109282008091600084FF65C082
:101E2000809161008F3F09F460C0182F893008F05D
:101E300018E0811B809361008091720098E88927E7
:101E400080937200112309F43EC080916A0087FFDD
:101E50001EC080916E00811708F4182F811B80939B
:101E60006E00E0916C00F0916D00A3E7B0E003C05C
:101E700084918D933196812F90E08D589F4FA817B4
:101E8000B907B1F7F0936D00E0936C001AC0E091D0
:101E90008000F091810086FF09C0912FA3E7B0E098
:101EA00084918D9331969150D9F707C0912FA3E774
:101EB000B0E081918D939150E1F7F0938100E09330
:101EC0008000193060F483E790E0612F06DD612F18
:101ED0006C5F6C3041F08FEF8093610004C08FEF36
:101EE000809361006EE16093600094E186B383703B
:101EF00031F49150D9F71092830010927D008091B7
:101F00006B00882309F038CE80B34CCEECE2F1E0D0
:101F10003197F1F70197D1F711DEE199FECF9FBB21
:101F20008EBBE09A99278DB30895262FE199FECFB5
:101F30009FBB8EBB2DBB0FB6F894E29AE19A0FBE01
:081F400001960895F894FFCF0B
:061F48005AFF1E93070082
:0400000300001800E1
:00000001FF
