:100000000C9463000C948B000C948B000C948B006C
:100010000C948B000C948B000C948B000C948B0034
:100020000C948B000C948B000C948B000C948B0024
:100030000C948B000C948B000C948B000C948B0014
:100040000C9415080C948B000C94EE060C948B0009
:100050000C948B000C948B000C948B000C948B00F4
:100060000C948B000C948B000000000024002700EF
:100070002A0000000000250028002B0000000000DE
:1000800023002600290004040404040404040202DA
:100090000202020203030303030301020408102007
:1000A0004080010204081020010204081020000012
:1000B0000007000201000003040600000000000029
:1000C00000005504A70711241FBECFEFD8E0DEBF04
:1000D000CDBF11E0A0E0B1E0E2E2F7E102C005909F
:1000E0000D92AA36B107D9F712E0AAE6B1E001C035
:1000F0001D92AD39B107E1F710E0C6ECD0E004C0C5
:100100002297FE010E948B0BC23CD107C9F70E94C7
:10011000E7060C948F0B0C940000CF92DF92EF92C5
:10012000FF920F931F93FC017283618317828FEFFD
:100130009FEF918780875483438310823387228780
:1001400015870487F786E686D18AC08A84E090E026
:1001500096838583EE59FF4F1192119280E490E0CF
:100160008193919384E190E08193919384E590E071
:1001700091838083349682E0819381E08083ED5681
:10018000F04080E090E020E2228B019631968035AD
:100190009105D1F71F910F91FF90EF90DF90CF90D5
:1001A0000895FC01E459FF4F60830895FC018081AC
:1001B000282F30E0EE59FF4F80819181E256F040C8
:1001C000281739074CF0EA59FF4F80819181E65694
:1001D000F04028173907B4F1EC59FF4F40815181A5
:1001E000E456F0402417350774F0E859FF4F80813A
:1001F0009181E856F040281739072CF4241B350B61
:100200002C5E3F4F1FC0EA59FF4F80819181E65617
:10021000F0402817390744F0241735072CF4281B21
:10022000390B285D3F4F0EC0E859FF4F8081918107
:10023000281739071CF42FEF3FEF04C0281B390B98
:10024000245C3F4FC90108950E94D60064E170E02C
:100250000E94250B6F5F7F4FCB010895BC01FC010D
:10026000729624E130E0848981932F5F3F4F2832DA
:100270003105C9F7FB01B696848981932F5F3F4F03
:100280002C333105C9F7FB01FA964CE350E0848921
:1002900081934F5F5F4F40355105C9F780E2FB0105
:1002A000E20FF31F828B2F5F3F4F20353105B9F7E7
:1002B00008950F931F938C01FC01838160E00E94DD
:1002C000FD0881E090E00E949508F801838161E0DB
:1002D0000E94FD0881E090E00E949508F80183816A
:1002E00060E00E94FD0861E070E080E090E00E9424
:1002F0006B081F910F910895CF92DF92EF92FF92BA
:100300000F931F93CF93DF93D82EC92E7B018FE0DD
:10031000E822FF248D2D9C018901C0E0D0E06E2DE4
:100320006170F80182850E94FD08F594E79421969A
:100330000E5F1F4FC430D10591F78D2D9C2D0E946B
:100340005901DF91CF911F910F91FF90EF90DF90B6
:10035000CF900895EF92FF920F931F938C017B0132
:10036000E4E075956795EA95E1F70E947C018FE0DE
:10037000E822FF24C801B7010E947C011F910F9160
:10038000FF90EF9008951F93CF93DF93EC01162F0A
:10039000898161E00E94FD088F81882321F0888592
:1003A00060E00E94FD08612F772767FD7095CE0100
:1003B0000E94AA01DF91CF911F9108950F931F937F
:1003C000CF93DF93EC018B01898160E00E94FD08EF
:1003D0008F81882321F0888560E00E94FD08CE018E
:1003E000B8010E94AA01DF91CF911F910F9108954A
:1003F000CF93DF93EC01C659DF4F199218822296F2
:100400008881CD56D040882361F0CE0162E070E053
:100410000E94DE01688170E060587F4FCE010E942B
:10042000DE01DF91CF910895DC01FB019A01443197
:10043000510514F023E130E0F096EE0FFF1FEA0FB4
:10044000FB1F8081820F8C93CD010E94F8010895DB
:1004500061E070E040E050E00E9414020895FC0169
:100460004081242F30E0EE59FF4F80819181E25688
:10047000F0404396DF01AC59BF4F2817390791F080
:100480008D919C914396DF01AA59BF4F28173907D8
:1004900049F08D919C914396DF01A859BF4F2817D1
:1004A000390731F48C918083CF010E94F8010895BF
:1004B0008D919C9143962817390729F4E659FF4FEF
:1004C00081E0808308954F5F40830895DF92EF922B
:1004D000FF920F931F93CF93DF93EC01162F6A3097
:1004E00051F50E9424018C01CE010E94D60024E126
:1004F00030E0029F7001039FF00C129FF00C11245A
:10050000E81AF90A00E010E030E2D32E10C0CE0164
:100510000E94D600FE01E80FF91FD28ACE0160E2E8
:100520000E94C301CE010E942F020F5F1F4F0E15C4
:100530001F056CF30DC00E94D600FE01E80FF91FE5
:10054000128BCE01612F0E94C301CE010E942F02A7
:10055000DF91CF911F910F91FF90EF90DF90089561
:10056000EF92FF920F931F93CF93DF938C010E9422
:100570002802E80140E5E42EF12CE00EF11EC8014E
:100580006A890E9466022196CE15DF05C1F7DF91C8
:10059000CF911F910F91FF90EF900895EF92FF92EE
:1005A0000F931F93CF93DF937C01CB01019764E1FD
:1005B00070E00E94250B8B010F5F1F4FC0E0D0E061
:1005C00004C0C7010E942E012196C017D107CCF3A9
:1005D000C7010E94B00265E070E0601B710BC701AB
:1005E00040E050E00E941402DF91CF911F910F91E3
:1005F000FF90EF900895EF92FF921F93CF93DF93B8
:10060000EC017B010E94280210E007C0EC0FFD1FE7
:10061000CE0162890E9466021F5FE12FF0E0EE15B5
:10062000FF05A4F3DF91CF911F91FF90EF90089504
:10063000CF93DF93DC01CB0101978F349105D8F480
:100640006E5E7F4FED01C60FD71F62517040FD01F6
:1006500040E050E020E530E0261B370B04C08991D4
:10066000818B4F5F5F4F319642175307C4F3CD0123
:10067000B9010E94FB02DF91CF9108950F931F9360
:10068000CF93DF93EC01C659DF4F8881CA56D04023
:10069000882391F0C459DF4F8881CC56D0408130F7
:1006A00021F4CE010E94CE0203C0CE010E941803A5
:1006B000C659DF4F188214C08E0105591F4FF8012B
:1006C0008081882369F0CE010E942401BC016F5F04
:1006D0007F4FCE0140E050E00E941402F8011082EA
:1006E000DF91CF911F910F910895AF92BF92DF924A
:1006F000EF92FF920F931F93CF93DF935C017B01E7
:10070000DB010D900020E9F78D0101501040061B20
:10071000170BDD240DC0B8016C1B7D0BC5010E94B9
:100720003E03CE0DDF1DC50168810E946602D39491
:10073000CD2DD0E0C017D10774F3DF91CF911F9179
:100740000F91FF90EF90DF90BF90AF900895FF92D0
:100750000F931F938C01F62E61E070E00E943E0320
:10076000C8016F2D0E9466021F910F91FF9008959E
:100770000F931F93CF93DF93EC018B01898160E08E
:100780000E94FD088F81882321F0888560E00E9407
:10079000FD08CE01B8010E947C01DF91CF911F912D
:1007A0000F910895CF93DF93EC018B8161E00E945C
:1007B000DD08898161E00E94DD088F81882321F0B6
:1007C000888561E00E94DD088A8561E00E94DD087D
:1007D0008C8561E00E94DD088E8561E00E94DD0865
:1007E000888961E00E94DD0862E370E080E090E0CB
:1007F0000E946B08CE0163E070E00E94B80365E0E0
:1008000070E080E090E00E946B08CE0163E070E051
:100810000E94B80384E690E00E949508CE0163E050
:1008200070E00E94B80365E070E080E090E00E9414
:100830006B08CE0162E070E00E94B803CE0162E076
:1008400070E00E94B8036D817E816150704053E07A
:10085000660F771F5A95E1F7CE010E94B8038CE32B
:1008600090E00E949508CE016CE070E00E94DE01ED
:100870008CE390E00E949508CE0161E070E00E9458
:10088000DE0163E070E080E090E00E946B08CE0142
:1008900066E070E00E94DE0161E070E080E090E0E0
:1008A0000E946B08DF91CF910895CF92DF92EF9273
:1008B000FF920F931F938AE791E06CE070E04AE0AB
:1008C00050E025E030E004E010E0F3E0EF2EF12C02
:1008D000E2E0CE2ED12C0E948D001F910F91FF904F
:1008E000EF90DF90CF900895EF92FF920F931F93B8
:1008F000DF93CF93CDB7DEB728970FB6F894DEBF5E
:100900000FBECDBF7C01FE01319688E0DF011D9254
:100910008A95E9F780E090E09F0140E305C0F90186
:10092000E80FF91F4083019686179707C4F38B01E0
:1009300001501040020F131FC7016AE070E00E94CF
:10094000250BC096AA2797FDA095BA2FBC01CD0113
:100950000E94990A0E94660AF8016083C7016AE052
:1009600070E00E94250B7B0101501040611571055C
:1009700019F78AE791E0BE016F5F7F4F0E94750310
:1009800028960FB6F894DEBF0FBECDBFCF91DF9192
:100990001F910F91FF90EF9008956F927F928F9229
:1009A0009F92AF92BF92CF92DF92EF92FF920F93FE
:1009B0001F93CF93DF93AA24BB24F501E85CFE4F7D
:1009C000E0808E2D60E00E94FD086501CC0CDD1CEE
:1009D000CC0CDD1C8AE691E0C80ED91E0CE3602E1B
:1009E00001E0702E450113E0880C991C1A95E1F77F
:1009F000A0E4B1E08A0E9B1EF601008110E0D30155
:100A0000FC908F2D0E944A090817190709F4ABC002
:100A10008F2D0E944A09F6018083882309F0A3C024
:100A2000D401ED91FC91EA30F105CCF58091E8011B
:100A30009091E901B3E0883E9B0744F068EE73E0D3
:100A40000E94250B9093E9018093E8018091E801D1
:100A50009091E9019C01B3E0220F331FBA95E1F7B1
:100A6000880F991F280F391F2E0F3F1F3093E90160
:100A70002093E8018AE791E063E070E048E050E00D
:100A80000E9414028091E8019091E90164E070E015
:100A90000E9474048AE791E060E071E062C03A97D6
:100AA00009F061C08091E8019091E90118161906DA
:100AB0000CF059C08AE791E064E070E040E050E05B
:100AC0000E9414028AE791E063E071E00E947503DE
:100AD000C3E0D0E08AE791E064E070E046E050E0F7
:100AE0000E941402CE0161E070E00E94740468EE7E
:100AF00073E080E090E00E946B08219759F78AE745
:100B000091E064E070E046E050E00E9414028AE761
:100B100091E06AE071E00E9475038DE061E00E945F
:100B2000FD086091E8017091E901882777FD8095C3
:100B3000982F0E946B088DE060E00E94FD0868EE2F
:100B400073E080E090E00E946B088AE791E064E047
:100B500070E040E050E00E9414028AE791E06FE00C
:100B600071E00E9475030894C11CD11C0894611C9B
:100B7000711CE2E0F0E08E0E9F1EF0E46F16F1E0D3
:100B80007F0609F039CF8E2D61E00E94FD080894A0
:100B9000A11CB11C24E0A216B10409F00ECFDF9114
:100BA000CF911F910F91FF90EF90DF90CF90BF906A
:100BB000AF909F908F907F906F9008950F931F93A9
:100BC0006091F6017091F7018091F8019091F9011F
:100BD00020E030E04AE754E40E94FE090E94660AE1
:100BE0008B019C017093F5016093F401CB016CE3E0
:100BF00070E00E94250B9093F3018093F201C801ED
:100C00006CE370E00E94250B9B016093F001309330
:100C1000F101CB016CE370E00E94250B9093EF0192
:100C20008093EE01C9016CE370E00E94250BCB01BB
:100C30006093EC019093ED016CE370E00E94250B52
:100C40009093EB018093EA010AE711E0C80162E0AA
:100C500070E046E050E00E9414028091EA01909119
:100C6000EB0162E070E00E947404C8016AE30E9434
:100C7000A7038091EE019091EF0162E070E00E9485
:100C80007404C8016AE30E94A7038091F201909165
:100C9000F30162E070E00E9474041F910F910895C7
:100CA0000E945D080E94970A6093F6017093F70115
:100CB0008093F8019093F9010E94CD040E94DE0513
:100CC0000E945D080E94970A2091F6013091F70179
:100CD0004091F8015091F9010E9499096093FA013D
:100CE0007093FB018093FC019093FD0108951F9385
:100CF000CF93DF938DE061E00E94DD088BE061E03F
:100D00000E94DD088BE060E00E94FD0882E892E02E
:100D100040E051EE60E070E00E942B078AE791E02E
:100D20000E94D2038AE791E061E00E94D1008AE745
:100D300091E064E271E00E947503C0E0D0E0FE0142
:100D4000E85CFE4F1081812F61E00E94DD08812F59
:100D500060E00E94FD08FE01E45CFE4F1081812FDF
:100D600060E00E94DD08812F61E00E94FD0821966D
:100D7000C430D10521F71092E9011092E8018AE709
:100D800091E063E070E040E050E00E9414028AE7E6
:100D900091E06BE171E00E9475038091E801909110
:100DA000E90164E070E00E9474048AE791E060E089
:100DB00071E00E9475038DE061E00E94DD088DE026
:100DC00060E00E94FD08DF91CF911F9108950E947D
:100DD000A3080E9477060E945006FDCF1F920F9233
:100DE0000FB60F9211242F933F934F935F936F93FE
:100DF0007F938F939F93AF93BF93EF93FF93409114
:100E0000C600E0917E02F0917F02CF01019660E87A
:100E100070E00E94250B9C018091800290918102DC
:100E20002817390739F0E250FE4F408330937F0294
:100E300020937E02FF91EF91BF91AF919F918F918F
:100E40007F916F915F914F913F912F910F900FBEC6
:100E50000F901F901895AF92BF92CF92DF92EF92B2
:100E6000FF920F931F93CF93DF936C017A018B0155
:100E7000DC011496AD90BC901597CB01BA0122E02D
:100E800030E040E050E00E945A0B205C3D4B404F68
:100E90005F4FCA01B901A80197010E945A0BC9010D
:100EA000DA010197A109B109292F3A2F4B2F5527B4
:100EB00047FD5A950196A11DB11DE5012883E60164
:100EC000EE81FF8181508083EA85FB85208141E0AE
:100ED00050E0CA010E8402C0880F991F0A94E2F7FD
:100EE000282B2083EA85FB852081CA010F8402C05C
:100EF000880F991F0A94E2F7282B2083EA85FB8547
:100F00008081088802C0440F551F0A94E2F7842BA1
:100F10008083DF91CF911F910F91FF90EF90DF9031
:100F2000CF90BF90AF900895FC01A085B185218935
:100F30008C9190E0022E02C0959587950A94E2F775
:100F400080FFF6CF0484F585E02D6083089584E664
:100F500091E090938302809382028EEF91E09093D0
:100F600085028093840285EC90E0909387028093C1
:100F7000860284EC90E0909389028093880280EC52
:100F800090E090938B0280938A0281EC90E09093A2
:100F90008D0280938C0286EC90E090938F02809378
:100FA0008E0284E08093900283E08093910287E038
:100FB0008093920285E08093930208950F931F938C
:100FC000CF93DF938C01EB0109C02196D801ED91FD
:100FD000FC910190F081E02DC8010995688166239C
:100FE000A1F7DF91CF911F910F910895EF92FF929A
:100FF0000F931F93CF93DF938C017B01EA010CC009
:10100000D7016D917D01D801ED91FC910190F081A6
:10101000E02DC80109952197209791F7DF91CF9195
:101020001F910F91FF90EF9008951F920F920FB6AE
:101030000F9211242F933F938F939F93AF93BF935E
:101040008091980290919902A0919A02B0919B028E
:1010500030919C020196A11DB11D232F2D5F2D37CC
:1010600020F02D570196A11DB11D20939C02809365
:10107000980290939902A0939A02B0939B02809158
:10108000940290919502A0919602B09197020196D8
:10109000A11DB11D8093940290939502A093960296
:1010A000B0939702BF91AF919F918F913F912F91F4
:1010B0000F900FBE0F901F9018958FB7F894209146
:1010C00098023091990240919A0250919B028FBFF1
:1010D000B901CA010895EF92FF920F931F937B010C
:1010E0008C018FB7F89440919802509199026091C9
:1010F0009A0270919B028FBF2FB7F894809198024B
:1011000090919902A0919A02B0919B022FBF841BEB
:10111000950BA60BB70BE816F9060A071B0760F735
:101120001F910F91FF90EF900895019759F0FC01E6
:10113000EE0FFF1FEE0FFF1F32978FB7F894319716
:10114000F1F78FBF0895789484B5826084BD84B52B
:10115000816084BD85B5826085BD85B5816085BDB2
:10116000EEE6F0E0808181608083E1E8F0E080815C
:1011700082608083808181608083E0E8F0E080810C
:1011800081608083E1EBF0E0808184608083E0EB2C
:10119000F0E0808181608083EAE7F0E08081846014
:1011A0008083808182608083808181608083808170
:1011B000806880831092C1000895282F30E0C90113
:1011C00086569F4FFC0194912A573F4FF901849115
:1011D000882391F0E82FF0E0EE0FFF1FE859FF4F52
:1011E000A591B491662329F48C91909589238C93D1
:1011F00008958C91892B8C930895482F50E0CA0153
:1012000082559F4FFC012491CA0186569F4FFC01D5
:1012100094914A575F4FFA0134913323D1F122233D
:1012200031F1233021F4809180008F7705C0243084
:1012300031F4809180008F7D8093800018C0213030
:1012400019F484B58F7704C0223021F484B58F7DE2
:1012500084BD0DC0263021F48091B0008F7705C089
:10126000273029F48091B0008F7D8093B000E32F68
:10127000F0E0EE0FFF1FEE58FF4FA591B4916623EB
:1012800029F48C91909589238C9308958C91892BC6
:101290008C930895682F70E0CB0182559F4FFC011D
:1012A0002491CB0186569F4FFC0144916A577F4F92
:1012B000FB019491992319F420E030E038C02223F7
:1012C00031F1233021F4809180008F7705C02430E4
:1012D00031F4809180008F7D8093800018C0213090
:1012E00019F484B58F7704C0223021F484B58F7D42
:1012F00084BD0DC0263021F48091B0008F7705C0E9
:10130000273029F48091B0008F7D8093B000892F21
:1013100090E0880F991F84589F4FFC01A591B491CC
:101320008C9120E030E0842311F021E030E0C9010D
:1013300008955058BB27AA270ED04DC13ED130F09A
:1013400043D120F031F49F3F11F41EF433C10EF469
:10135000E095E7FB29C1E92F4FD180F3BA17620767
:1013600073078407950718F071F49EF567C10EF4B2
:10137000E0950B2EBA2FA02D0B01B90190010C01A5
:10138000CA01A0011124FF27591B99F0593F50F4BD
:10139000503E68F11A16F040A22F232F342F442715
:1013A000585FF3CF469537952795A795F04053950D
:1013B000C9F77EF41F16BA0B620B730B840BBAF0DD
:1013C0009150A1F0FF0FBB1F661F771F881FC2F748
:1013D0000EC0BA0F621F731F841F48F4879577955C
:1013E0006795B795F7959E3F08F0B3CF9395880F13
:1013F00008F09927EE0F9795879508950CD0EBC0CC
:10140000E3D040F0DAD030F021F45F3F19F0CCC0E7
:10141000511115C1CFC0F0D098F39923C9F35523CA
:10142000B1F3951B550BBB27AA27621773078407D7
:1014300038F09F5F5F4F220F331F441FAA1FA9F38D
:1014400033D00E2E3AF0E0E830D091505040E6957F
:10145000001CCAF729D0FE2F27D0660F771F881FE0
:10146000BB1F261737074807AB07B0E809F0BB0BCF
:10147000802DBF01FF2793585F4F2AF09E3F5105F3
:1014800068F092C0DCC05F3FECF3983EDCF38695D9
:1014900077956795B795F7959F5FC9F7880F911D69
:1014A0009695879597F90895E1E0660F771F881F55
:1014B000BB1F621773078407BA0720F0621B730B08
:1014C000840BBA0BEE1F88F7E095089504D068945A
:1014D000B111B5C0089598D088F09F5790F0B92FFA
:1014E0009927B751A0F0D1F0660F771F881F991F79
:1014F0001AF0BA95C9F712C0B13081F09FD0B1E0AF
:1015000008959CC0672F782F8827B85F39F0B93FBE
:10151000CCF3869577956795B395D9F73EF490957A
:101520008095709561957F4F8F4F9F4F0895E894F8
:1015300009C097FB3EF490958095709561957F4F1B
:101540008F4F9F4F9923A9F0F92F96E9BB279395C9
:10155000F695879577956795B795F111F8CFFAF4D9
:10156000BB0F11F460FF1BC06F5F7F4F8F4F9F4F0A
:1015700016C0882311F096E911C0772321F09EE868
:10158000872F762F05C0662371F096E8862F70E0CE
:1015900060E02AF09A95660F771F881FDAF7880FA8
:1015A0009695879597F9089597F99F6780E870E079
:1015B00060E008959FEF80EC089500240A941616C9
:1015C000170618060906089500240A941216130631
:1015D000140605060895092E0394000C11F48823BF
:1015E00052F0BB0F40F4BF2B11F460FF04C06F5FDB
:1015F0007F4F8F4F9F4F089557FD9058440F551FB1
:1016000059F05F3F71F04795880F97FB991F61F084
:101610009F3F79F087950895121613061406551FFB
:10162000F2CF4695F1DF08C0161617061806991F67
:10163000F1CF86957105610508940895E894BB275C
:1016400066277727CB0197F9089597FB092E072680
:101650000AD077FD04D049D006D000201AF4709546
:1016600061957F4F0895F6F7909581959F4F089566
:10167000A1E21A2EAA1BBB1BFD010DC0AA1FBB1F96
:10168000EE1FFF1FA217B307E407F50720F0A21B08
:10169000B30BE40BF50B661F771F881F991F1A9475
:1016A00069F760957095809590959B01AC01BD019F
:1016B000CF01089597FB092E05260ED057FD04D0C3
:1016C000D7DF0AD0001C38F450954095309521950D
:1016D0003F4F4F4F5F4F0895F6F790958095709567
:1016E00061957F4F8F4F9F4F0895AA1BBB1B51E100
:1016F00007C0AA1FBB1FA617B70710F0A61BB70B82
:10170000881F991F5A95A9F780959095BC01CD0126
:101710000895EE0FFF1F0590F491E02D0994F894C1
:02172000FFCFF9
:101722006D7300426F6F6D3A200042616E67002058
:1017320020202020202020202020004C7565747459
:10174200753A200048656C6C6F20576F726C64218B
:101752000A54696D653A2000060708090E0F101138
:10176200010002000300C800040005000600C800D2
:10177200070008000900C800C8000000C8000A00ED
:0A178200000000009407DE07F607E0
:00000001FF
